{
  "_format": "hh-sol-artifact-1",
  "contractName": "Quiz",
  "sourceName": "contracts/Quiz.sol",
  "abi": [
    {
      "inputs": [
        {
          "internalType": "contract ERC20",
          "name": "_tokenContract",
          "type": "address"
        }
      ],
      "stateMutability": "nonpayable",
      "type": "constructor"
    },
    {
      "anonymous": false,
      "inputs": [
        {
          "indexed": true,
          "internalType": "address",
          "name": "previousOwner",
          "type": "address"
        },
        {
          "indexed": true,
          "internalType": "address",
          "name": "newOwner",
          "type": "address"
        }
      ],
      "name": "OwnershipTransferred",
      "type": "event"
    },
    {
      "stateMutability": "nonpayable",
      "type": "fallback"
    },
    {
      "inputs": [
        {
          "internalType": "uint256",
          "name": "_id",
          "type": "uint256"
        },
        {
          "internalType": "uint256",
          "name": "_price",
          "type": "uint256"
        }
      ],
      "name": "createQuiz",
      "outputs": [],
      "stateMutability": "nonpayable",
      "type": "function"
    },
    {
      "inputs": [
        {
          "internalType": "uint256",
          "name": "",
          "type": "uint256"
        },
        {
          "internalType": "address",
          "name": "",
          "type": "address"
        }
      ],
      "name": "isSubscribed",
      "outputs": [
        {
          "internalType": "bool",
          "name": "",
          "type": "bool"
        }
      ],
      "stateMutability": "view",
      "type": "function"
    },
    {
      "inputs": [],
      "name": "owner",
      "outputs": [
        {
          "internalType": "address",
          "name": "",
          "type": "address"
        }
      ],
      "stateMutability": "view",
      "type": "function"
    },
    {
      "inputs": [],
      "name": "ownerBalance",
      "outputs": [
        {
          "internalType": "uint256",
          "name": "",
          "type": "uint256"
        }
      ],
      "stateMutability": "view",
      "type": "function"
    },
    {
      "inputs": [],
      "name": "platformFee",
      "outputs": [
        {
          "internalType": "uint256",
          "name": "",
          "type": "uint256"
        }
      ],
      "stateMutability": "view",
      "type": "function"
    },
    {
      "inputs": [
        {
          "internalType": "uint256",
          "name": "",
          "type": "uint256"
        }
      ],
      "name": "quizFund",
      "outputs": [
        {
          "internalType": "uint256",
          "name": "",
          "type": "uint256"
        }
      ],
      "stateMutability": "view",
      "type": "function"
    },
    {
      "inputs": [
        {
          "internalType": "uint256",
          "name": "",
          "type": "uint256"
        }
      ],
      "name": "quizPrice",
      "outputs": [
        {
          "internalType": "uint256",
          "name": "",
          "type": "uint256"
        }
      ],
      "stateMutability": "view",
      "type": "function"
    },
    {
      "inputs": [
        {
          "internalType": "uint256",
          "name": "_quizId",
          "type": "uint256"
        }
      ],
      "name": "redeem",
      "outputs": [],
      "stateMutability": "nonpayable",
      "type": "function"
    },
    {
      "inputs": [],
      "name": "renounceOwnership",
      "outputs": [],
      "stateMutability": "nonpayable",
      "type": "function"
    },
    {
      "inputs": [
        {
          "internalType": "uint256",
          "name": "_quizId",
          "type": "uint256"
        },
        {
          "internalType": "address[]",
          "name": "_winners",
          "type": "address[]"
        }
      ],
      "name": "setWinners",
      "outputs": [],
      "stateMutability": "nonpayable",
      "type": "function"
    },
    {
      "inputs": [
        {
          "internalType": "uint256",
          "name": "_quizId",
          "type": "uint256"
        }
      ],
      "name": "subscribe",
      "outputs": [],
      "stateMutability": "nonpayable",
      "type": "function"
    },
    {
      "inputs": [],
      "name": "token",
      "outputs": [
        {
          "internalType": "contract ERC20",
          "name": "",
          "type": "address"
        }
      ],
      "stateMutability": "view",
      "type": "function"
    },
    {
      "inputs": [
        {
          "internalType": "address",
          "name": "newOwner",
          "type": "address"
        }
      ],
      "name": "transferOwnership",
      "outputs": [],
      "stateMutability": "nonpayable",
      "type": "function"
    },
    {
      "inputs": [
        {
          "internalType": "uint256",
          "name": "",
          "type": "uint256"
        },
        {
          "internalType": "address",
          "name": "",
          "type": "address"
        }
      ],
      "name": "winBalance",
      "outputs": [
        {
          "internalType": "uint256",
          "name": "",
          "type": "uint256"
        }
      ],
      "stateMutability": "view",
      "type": "function"
    },
    {
      "inputs": [],
      "name": "withdraw",
      "outputs": [],
      "stateMutability": "nonpayable",
      "type": "function"
    }
  ],
  "bytecode": "0x6080604052600a6007553480156200001657600080fd5b5060405162001a7d38038062001a7d83398181016040528101906200003c919062000187565b6200005c62000050620000a460201b60201c565b620000ac60201b60201c565b80600160006101000a81548173ffffffffffffffffffffffffffffffffffffffff021916908373ffffffffffffffffffffffffffffffffffffffff1602179055505062000215565b600033905090565b60008060009054906101000a900473ffffffffffffffffffffffffffffffffffffffff169050816000806101000a81548173ffffffffffffffffffffffffffffffffffffffff021916908373ffffffffffffffffffffffffffffffffffffffff1602179055508173ffffffffffffffffffffffffffffffffffffffff168173ffffffffffffffffffffffffffffffffffffffff167f8be0079c531659141344cd1fd0a4f28419497f9722a3daafe3b4186f6b6457e060405160405180910390a35050565b6000815190506200018181620001fb565b92915050565b6000602082840312156200019a57600080fd5b6000620001aa8482850162000170565b91505092915050565b6000620001c082620001db565b9050919050565b6000620001d482620001b3565b9050919050565b600073ffffffffffffffffffffffffffffffffffffffff82169050919050565b6200020681620001c7565b81146200021257600080fd5b50565b61185880620002256000396000f3fe608060405234801561001057600080fd5b50600436106100f95760003560e01c8063715018a611610097578063db006a7511610066578063db006a751461024e578063df4714201461026a578063f2fde38b1461029a578063fc0c546a146102b6576100fa565b8063715018a6146101ec5780638da5cb5b146101f6578063bedcf00314610214578063c43a7c4a14610232576100fa565b80633ccfd60b116100d35780633ccfd60b1461016657806342095eaf1461017057806355aba3131461018c5780636f54eaa8146101bc576100fa565b80630f574ba7146100fc57806326232a2e14610118578063314a051c14610136576100fa565b5b005b61011660048036038101906101119190611026565b6102d4565b005b6101206105b9565b60405161012d91906113f0565b60405180910390f35b610150600480360381019061014b9190611078565b6105bf565b60405161015d91906112fa565b60405180910390f35b61016e6105ee565b005b61018a6004803603810190610185919061110c565b610726565b005b6101a660048036038101906101a19190611078565b6107be565b6040516101b391906113f0565b60405180910390f35b6101d660048036038101906101d19190611026565b6107e3565b6040516101e391906113f0565b60405180910390f35b6101f46107fb565b005b6101fe610883565b60405161020b9190611256565b60405180910390f35b61021c6108ac565b60405161022991906113f0565b60405180910390f35b61024c600480360381019061024791906110b4565b6108b2565b005b61026860048036038101906102639190611026565b610b48565b005b610284600480360381019061027f9190611026565b610d34565b60405161029191906113f0565b60405180910390f35b6102b460048036038101906102af9190610fd4565b610d4c565b005b6102be610e44565b6040516102cb9190611315565b60405180910390f35b60006006600083815260200190815260200160002054905080600160009054906101000a900473ffffffffffffffffffffffffffffffffffffffff1673ffffffffffffffffffffffffffffffffffffffff1663dd62ed3e33306040518363ffffffff1660e01b815260040161034a929190611271565b60206040518083038186803b15801561036257600080fd5b505afa158015610376573d6000803e3d6000fd5b505050506040513d601f19601f8201168201806040525081019061039a919061104f565b10156103db576040517f08c379a00000000000000000000000000000000000000000000000000000000081526004016103d290611350565b60405180910390fd5b600160009054906101000a900473ffffffffffffffffffffffffffffffffffffffff1673ffffffffffffffffffffffffffffffffffffffff166323b872dd3330846040518463ffffffff1660e01b815260040161043a9392919061129a565b602060405180830381600087803b15801561045457600080fd5b505af1158015610468573d6000803e3d6000fd5b505050506040513d601f19601f8201168201806040525081019061048c9190610ffd565b6104cb576040517f08c379a00000000000000000000000000000000000000000000000000000000081526004016104c2906113d0565b60405180910390fd5b6064600754826104db91906114a3565b6104e59190611472565b600560008282546104f6919061141c565b925050819055506064600754606461050e91906114fd565b8261051991906114a3565b6105239190611472565b600360008481526020019081526020016000206000828254610545919061141c565b9250508190555060016004600084815260200190815260200160002060003373ffffffffffffffffffffffffffffffffffffffff1673ffffffffffffffffffffffffffffffffffffffff16815260200190815260200160002060006101000a81548160ff0219169083151502179055505050565b60075481565b60046020528160005260406000206020528060005260406000206000915091509054906101000a900460ff1681565b6105f6610e6a565b73ffffffffffffffffffffffffffffffffffffffff16610614610883565b73ffffffffffffffffffffffffffffffffffffffff161461066a576040517f08c379a0000000000000000000000000000000000000000000000000000000008152600401610661906113b0565b60405180910390fd5b600160009054906101000a900473ffffffffffffffffffffffffffffffffffffffff1673ffffffffffffffffffffffffffffffffffffffff1663a9059cbb336005546040518363ffffffff1660e01b81526004016106c99291906112d1565b602060405180830381600087803b1580156106e357600080fd5b505af11580156106f7573d6000803e3d6000fd5b505050506040513d601f19601f8201168201806040525081019061071b9190610ffd565b506000600581905550565b61072e610e6a565b73ffffffffffffffffffffffffffffffffffffffff1661074c610883565b73ffffffffffffffffffffffffffffffffffffffff16146107a2576040517f08c379a0000000000000000000000000000000000000000000000000000000008152600401610799906113b0565b60405180910390fd5b8060066000848152602001908152602001600020819055505050565b6002602052816000526040600020602052806000526040600020600091509150505481565b60036020528060005260406000206000915090505481565b610803610e6a565b73ffffffffffffffffffffffffffffffffffffffff16610821610883565b73ffffffffffffffffffffffffffffffffffffffff1614610877576040517f08c379a000000000000000000000000000000000000000000000000000000000815260040161086e906113b0565b60405180910390fd5b6108816000610e72565b565b60008060009054906101000a900473ffffffffffffffffffffffffffffffffffffffff16905090565b60055481565b6108ba610e6a565b73ffffffffffffffffffffffffffffffffffffffff166108d8610883565b73ffffffffffffffffffffffffffffffffffffffff161461092e576040517f08c379a0000000000000000000000000000000000000000000000000000000008152600401610925906113b0565b60405180910390fd5b60008282905060036000868152602001908152602001600020546109529190611472565b9050600083839050600360008781526020019081526020016000205461097891906115e6565b9050806005600082825461098c919061141c565b9250508190555060005b84849050811015610b40576004600087815260200190815260200160002060008686848181106109ef577f4e487b7100000000000000000000000000000000000000000000000000000000600052603260045260246000fd5b9050602002016020810190610a049190610fd4565b73ffffffffffffffffffffffffffffffffffffffff1673ffffffffffffffffffffffffffffffffffffffff16815260200190815260200160002060009054906101000a900460ff16610a8b576040517f08c379a0000000000000000000000000000000000000000000000000000000008152600401610a8290611370565b60405180910390fd5b82600260008881526020019081526020016000206000878785818110610ada577f4e487b7100000000000000000000000000000000000000000000000000000000600052603260045260246000fd5b9050602002016020810190610aef9190610fd4565b73ffffffffffffffffffffffffffffffffffffffff1673ffffffffffffffffffffffffffffffffffffffff168152602001908152602001600020819055508080610b389061159d565b915050610996565b505050505050565b60006002600083815260200190815260200160002060003373ffffffffffffffffffffffffffffffffffffffff1673ffffffffffffffffffffffffffffffffffffffff1681526020019081526020016000205411610bdb576040517f08c379a0000000000000000000000000000000000000000000000000000000008152600401610bd290611390565b60405180910390fd5b600160009054906101000a900473ffffffffffffffffffffffffffffffffffffffff1673ffffffffffffffffffffffffffffffffffffffff1663a9059cbb336002600085815260200190815260200160002060003373ffffffffffffffffffffffffffffffffffffffff1673ffffffffffffffffffffffffffffffffffffffff168152602001908152602001600020546040518363ffffffff1660e01b8152600401610c889291906112d1565b602060405180830381600087803b158015610ca257600080fd5b505af1158015610cb6573d6000803e3d6000fd5b505050506040513d601f19601f82011682018060405250810190610cda9190610ffd565b5060006002600083815260200190815260200160002060003373ffffffffffffffffffffffffffffffffffffffff1673ffffffffffffffffffffffffffffffffffffffff1681526020019081526020016000208190555050565b60066020528060005260406000206000915090505481565b610d54610e6a565b73ffffffffffffffffffffffffffffffffffffffff16610d72610883565b73ffffffffffffffffffffffffffffffffffffffff1614610dc8576040517f08c379a0000000000000000000000000000000000000000000000000000000008152600401610dbf906113b0565b60405180910390fd5b600073ffffffffffffffffffffffffffffffffffffffff168173ffffffffffffffffffffffffffffffffffffffff161415610e38576040517f08c379a0000000000000000000000000000000000000000000000000000000008152600401610e2f90611330565b60405180910390fd5b610e4181610e72565b50565b600160009054906101000a900473ffffffffffffffffffffffffffffffffffffffff1681565b600033905090565b60008060009054906101000a900473ffffffffffffffffffffffffffffffffffffffff169050816000806101000a81548173ffffffffffffffffffffffffffffffffffffffff021916908373ffffffffffffffffffffffffffffffffffffffff1602179055508173ffffffffffffffffffffffffffffffffffffffff168173ffffffffffffffffffffffffffffffffffffffff167f8be0079c531659141344cd1fd0a4f28419497f9722a3daafe3b4186f6b6457e060405160405180910390a35050565b600081359050610f45816117dd565b92915050565b60008083601f840112610f5d57600080fd5b8235905067ffffffffffffffff811115610f7657600080fd5b602083019150836020820283011115610f8e57600080fd5b9250929050565b600081519050610fa4816117f4565b92915050565b600081359050610fb98161180b565b92915050565b600081519050610fce8161180b565b92915050565b600060208284031215610fe657600080fd5b6000610ff484828501610f36565b91505092915050565b60006020828403121561100f57600080fd5b600061101d84828501610f95565b91505092915050565b60006020828403121561103857600080fd5b600061104684828501610faa565b91505092915050565b60006020828403121561106157600080fd5b600061106f84828501610fbf565b91505092915050565b6000806040838503121561108b57600080fd5b600061109985828601610faa565b92505060206110aa85828601610f36565b9150509250929050565b6000806000604084860312156110c957600080fd5b60006110d786828701610faa565b935050602084013567ffffffffffffffff8111156110f457600080fd5b61110086828701610f4b565b92509250509250925092565b6000806040838503121561111f57600080fd5b600061112d85828601610faa565b925050602061113e85828601610faa565b9150509250929050565b61115181611531565b82525050565b61116081611543565b82525050565b61116f81611579565b82525050565b600061118260268361140b565b915061118d82611675565b604082019050919050565b60006111a560168361140b565b91506111b0826116c4565b602082019050919050565b60006111c860288361140b565b91506111d3826116ed565b604082019050919050565b60006111eb60218361140b565b91506111f68261173c565b604082019050919050565b600061120e60208361140b565b91506112198261178b565b602082019050919050565b6000611231600f8361140b565b915061123c826117b4565b602082019050919050565b6112508161156f565b82525050565b600060208201905061126b6000830184611148565b92915050565b60006040820190506112866000830185611148565b6112936020830184611148565b9392505050565b60006060820190506112af6000830186611148565b6112bc6020830185611148565b6112c96040830184611247565b949350505050565b60006040820190506112e66000830185611148565b6112f36020830184611247565b9392505050565b600060208201905061130f6000830184611157565b92915050565b600060208201905061132a6000830184611166565b92915050565b6000602082019050818103600083015261134981611175565b9050919050565b6000602082019050818103600083015261136981611198565b9050919050565b60006020820190508181036000830152611389816111bb565b9050919050565b600060208201905081810360008301526113a9816111de565b9050919050565b600060208201905081810360008301526113c981611201565b9050919050565b600060208201905081810360008301526113e981611224565b9050919050565b60006020820190506114056000830184611247565b92915050565b600082825260208201905092915050565b60006114278261156f565b91506114328361156f565b9250827fffffffffffffffffffffffffffffffffffffffffffffffffffffffffffffffff0382111561146757611466611617565b5b828201905092915050565b600061147d8261156f565b91506114888361156f565b92508261149857611497611646565b5b828204905092915050565b60006114ae8261156f565b91506114b98361156f565b9250817fffffffffffffffffffffffffffffffffffffffffffffffffffffffffffffffff04831182151516156114f2576114f1611617565b5b828202905092915050565b60006115088261156f565b91506115138361156f565b92508282101561152657611525611617565b5b828203905092915050565b600061153c8261154f565b9050919050565b60008115159050919050565b600073ffffffffffffffffffffffffffffffffffffffff82169050919050565b6000819050919050565b60006115848261158b565b9050919050565b60006115968261154f565b9050919050565b60006115a88261156f565b91507fffffffffffffffffffffffffffffffffffffffffffffffffffffffffffffffff8214156115db576115da611617565b5b600182019050919050565b60006115f18261156f565b91506115fc8361156f565b92508261160c5761160b611646565b5b828206905092915050565b7f4e487b7100000000000000000000000000000000000000000000000000000000600052601160045260246000fd5b7f4e487b7100000000000000000000000000000000000000000000000000000000600052601260045260246000fd5b7f4f776e61626c653a206e6577206f776e657220697320746865207a65726f206160008201527f6464726573730000000000000000000000000000000000000000000000000000602082015250565b7f496e73756666696369656e7420416c6c6f77616e636500000000000000000000600082015250565b7f57696e6e6572206d7573742062652061207061727469636970616e74206f662060008201527f746865207175697a000000000000000000000000000000000000000000000000602082015250565b7f5468657265206973206e6f2077696e2062616c616e636520746f20726564656560008201527f6d00000000000000000000000000000000000000000000000000000000000000602082015250565b7f4f776e61626c653a2063616c6c6572206973206e6f7420746865206f776e6572600082015250565b7f5472616e73666572204661696c65640000000000000000000000000000000000600082015250565b6117e681611531565b81146117f157600080fd5b50565b6117fd81611543565b811461180857600080fd5b50565b6118148161156f565b811461181f57600080fd5b5056fea2646970667358221220e8fe7ba8a15ed324510d818f9659607393ca87f4a66dd4ed8d677995aed5ecb664736f6c63430008040033",
  "linkReferences": {},
  "deployedLinkReferences": {}
}